:020000041000EA
:10000000002008205D0100101B0100101D010010E0
:100010001101001011010010110100101101001058
:100020001901001019010010190100101F01001022
:10003000110100101901001021010010230100100E
:100040001101001011010010110100101101001028
:100050001101001011010010110100101101001018
:100060001101001011010010110100101101001008
:1000700011010010110100101101001011010010F8
:1000800011010010110100101101001011010010E8
:1000900011010010110100101101001011010010D8
:1000A00011010010110100101101001011010010C8
:1000B00011010010110100101101001011010010B8
:1000C00011010010110100101101001011010010A8
:1000D0001101001011010010110100101101001098
:1000E0001101001011010010110100101101001088
:1000F0001101001011010010110100101101001078
:100100001101001011010010110100101101001067
:10011000EFF30580103800BE00BE00BE00BE00BE7A
:1001200000BE00BEF2EB88711C22011040220110BB
:10013000A001001090A31AE7D3DEFFFF42012110B7
:10014000FF01000040410100793512AB4FF0000083
:100150001E49086006C881F3088810474FF05040D8
:10016000006810B14FF00000F2E70DA40ECC00299A
:1001700002D000F012F8F9E71549164A002000E015
:1001800001C19142FCD11449884714498847144958
:10019000884700BEFDE701C901C29A42FBD3704700
:1001A0004022011010010020482100207842011057
:1001B00000000820000008207842011000100820EC
:1001C00000100820000000007047000008ED00E06B
:1001D00048210020E03B0020799200108D020010A1
:1001E0003D920010F8B500BF064B0749C91A8910A7
:1001F00048BF0131491003D0044B0BB101481847E7
:10020000704700BF48210020482100200000000066
:1002100008B5054B1BB105490548AFF30080BDE8A3
:100220000840FFF7E1BF00BF00000000503B002086
:10023000C8E7001008B5042005F05EFD052005F0B4
:100240005BFD00221146042005F0B8FC0022114697
:10025000052005F0B3FC0B490B480DF0F9FB032119
:10026000042005F08FFC0321052005F08BFC002203
:100270000121042005F0A2FC00220121052005F047
:100280009DFC08BD801A0600D81B00202DE9F04F08
:100290002DED029B8FB009F005F90DF01BFC0CF061
:1002A000C7F979480CF0BAFC78480CF0B7FC7848EC
:1002B0000CF0B4FC40F6B83006F0DCFD07F07CF939
:1002C00068B1744809F0F2F80CF0D0FA054650B164
:1002D0004FF0FF300FB0BDEC029BBDE8F08F6E48D1
:1002E00009F0E4F8F0E76D4809F0E0F8FFF7A2FF45
:1002F0006B4809F0DBF80D230C220B210A2000F0DB
:10030000CFFC06E0E0B202F077F801340B2CF9DD07
:100310000135012D01D80124F8E7624809F0C6F83B
:10032000614D624CDFF8CC81CDF808804FF07F57EB
:1003300001975F4E00965F4B2A462146204601F00A
:10034000F7FC5D4B1860CDF80880019700965B4B79
:100350002A462146204601F0EBFC594B18605948CB
:1003600009F0A4F8002000F09DFA00F091FA02E0F4
:10037000322006F07FFD544B1B78002BF8D15348F8
:1003800009F094F8062302930723019308230093AE
:1003900009233F4A3C214E4800F06EFE05464D4879
:1003A00009F084F800F018FB4B4809F07FF80121B0
:1003B0004FF4FA7007F0D2F8484809F077F85EE099
:1003C000696AA86800F006FF002385F83830444BBE
:1003D0001C78E4B2384B1B68D869D3F82080384BBE
:1003E0001B68D3F81CB01E6A3E4B1B681A68116864
:1003F0000F6A5B68196891ED089AD2F81490D3F8E7
:1004000014A00EF079F9CDE90C01CDF82CA0CDF8AF
:10041000289019EE100A0EF06FF9CDE90801384660
:100420000EF06AF9CDE9060130460EF065F9CDE926
:10043000040158460EF060F9CDE9020140460EF085
:100440005BF9CDE90001DDE90C232146264809F0DE
:100450005DF8642006F00EFD244B1B685A68D2F844
:1004600090111A6852689B68D3F890311B895288A2
:1004700009891F4809F04AF8642006F0FBFC95F84A
:100480003830002B9CD1A2E70000205000003050F3
:1004900000004050C8E70010E0E70010F4E700104B
:1004A00004E8001028E800100AD7A33CCDCC4C3D4E
:1004B0000000C0BFD7A3B03F343B00206666A63F14
:1004C000A03B002048E80010381800205CE800102D
:1004D000D81B00207CE8001098E80010B4E8001059
:1004E000D83B002010370020C8E800100C3700204F
:1004F00068E900100AD7233CF0B585B007460C46E2
:1005000015461E4606F006FBFB174FEA431E4EEA51
:10051000D76E4FEA471CBCEB070C6EEB030E4FEA9D
:100520008E0E4EEA9C7E4FEA8C0C1CEB070C43EBC4
:100530000E03DB000296019500944FEACC0243EAD9
:100540005C7306F029FD05B0F0BD0000000000005E
:1005500038B52DED028B0546002408E055F824003F
:1005600001F0BAF82946204601F0DEF80134032CE8
:10057000F4DD284601F00CF908EE900AF0EEE87A76
:1005800017EE900A0EF0B8F804460D4600221A4BFA
:1005900007F090FA02460B4615A1D1E9000107F0D9
:1005A00075FA07F047FB08EE100AF5EEC08AF1EE87
:1005B00010FA18DD0022114B2046294607F07AFA7E
:1005C00007F038FB07EE900AB7EE087A28EE078AA4
:1005D0000B4B83ED008A67EE877A0A4BC3ED007AF6
:1005E000BDEC028B38BD0022074BE5E7AFF300807E
:1005F000666666666666D63F0000E03F0000F03F34
:10060000B03B0020B43B00200000F0BF10B5044612
:10061000006801F053F9606801F070FAA06801F019
:100620006DFA204601F094FA236993ED007AD3ED38
:10063000017AF7EE086A27EE267A044B83ED007AFA
:1006400067EEA67A024BC3ED007A10BDB03B0020E6
:10065000B43B002010B5044601F092FC23695B888E
:10066000A3F2DC5307EE903AF8EEE77A9FED206AAA
:1006700087EE867AA3685B88A3F2DC5307EE903A94
:10068000F8EEE77AC7EE866AB0EEC76ADFED197A50
:10069000B4EEE76AF1EE10FA01D59FED177AF0EEAD
:1006A000E67A9FED146AF4EEC67AF1EE10FA01D5FF
:1006B000DFED116AF7EE087A27EE276A0F4B83ED1C
:1006C000006A66EEA77A0E4BC3ED007AB5EE407A6B
:1006D000F1EE10FA0BD1F5EE406AF1EE10FA06D108
:1006E000084B1A6800231361074A1268136110BD92
:1006F0000000FA43CDCC4C3D00000000B03B002090
:10070000B43B0020343B0020A03B002070B52DED11
:10071000028B06F0F5FC04460E463F4D28686968DA
:10072000201A66EB010107F039FB07EE100ADFED36
:100730003B7A87EE278A2C606E60DFED397AB4EE63
:10074000E78AF1EE10FA52D4364B1B78002B29D1F0
:10075000354C23681B68186802F0CAF823685B6888
:10076000186802F0C5F8304D2B681B6818EE101A97
:10077000186802F055F904462B685B6818EE101AE9
:10078000186802F04DF9294B1D682C62284B1B6834
:100790001862244A1278052A39D8DFE802F00F16C9
:1007A00016162C16204C23681B68186802F000F9F6
:1007B00023685B68186802F0FBF8D4E71D4A1168EB
:1007C0000022CA611C490968CA611C49D1ED007A3E
:1007D0001B4A92ED007A77EE877AC5ED077AD1ED64
:1007E000007A92ED007A77EEC77AC3ED077A01209E
:1007F000BDEC028B70BD0F4A11680022CA610E4920
:100800000968CA610D490A600D490A60DDE7054AB9
:1008100000211170D9E700BF38230020002474495B
:1008200017B7D138D83B002010370020343B0020C8
:10083000A03B0020F8360020B83B0020B03B002051
:10084000B43B002010B506F049FE0D4B1B783BB9B8
:10085000002214460B4B1868037C63B1012010BDC5
:10086000094B186801F08AFA0446084B186801F031
:1008700085FA0246EEE7214600F0DAF9EEE700BF1E
:10088000D83B002010370020343B0020A03B002044
:1008900008B50BF0CDFE02480BF066FF08BD00BFA7
:1008A00009090010014B1870704700BFD83B0020A9
:1008B00008B50E2005F020FA0F2005F01DFA0022E1
:1008C00011460E2005F07AF9002211460F2005F09E
:1008D00075F90B490B480DF0BBF803210E2005F00C
:1008E00051F903210F2005F04DF9002201210E20BE
:1008F00005F064F9002201210F2005F05FF908BD21
:10090000801A0600D01B002070B5FFF7D1FF2948E0
:1009100000F06CFE0646284801F086F805460121E5
:10092000264801F001FB044606F0EAFB244BC3E92C
:100930000001244B002224496FF00900FFF7DCFD81
:10094000224808F0B3FD224B00221A7003E04FF456
:10095000967006F08FFA1F4B1B78052B25D801A245
:1009600052F823F04F0900107D090010850900108E
:1009700093090010A1090010570900103046FFF735
:10098000E7FDE8E72846FFF741FE0A2006F072FA85
:10099000E1E72046FFF75EFE012006F06BFADAE79A
:1009A0004FF4967006F066FAD5E70A4B00221A70EB
:1009B000D1E700BF00003050D01B002000000740EE
:1009C00038230020402300200D07001080E900108C
:1009D00038180020D83B002008B5044B00220449F9
:1009E0006FF00900FFF788FD08BD00BF4821002017
:1009F0004508001000EB80008000084B03441046BF
:100A000041B11004064A19684840024003F580537A
:100A10001A6070474FF6FF72F5E700BF0C800A407E
:100A20000000FFFF08B503460A461F2806D8C0F39A
:100A3000420003F00101FFF7DDFF08BDC0F34100F4
:100A40000830F6E72DE9F04780460F46242007F0EE
:100A50009FFA064600285FD0002343610023C3614C
:100A60000421404605F08EF80421384605F08AF846
:100A7000B8F11F0F54D8C8F342021F2F54D8C7F340
:100A800042032B4902EB820501EB850510246C60C3
:100A90004EF65F20286102EB8205AD0005F180452E
:100AA00005F52829D9F800C06FEA0C0C0CF0010CF0
:100AB00005F52925C5F800C003EB830C01EB8C017B
:100AC0004C6008616446A40004F1804404F5282ABF
:100AD000DAF80010C94301F0010104F5292421606E
:100AE000C6F80480B760F260336100214046FFF72A
:100AF00099FF00213846FFF795FFD9F80030DB4316
:100B000003F002032B60DAF80030DB4303F002034A
:100B100023603046BDE8F087064808F0C7FCF8E7D8
:100B2000C8F341020832A8E7C7F341030833A8E736
:100B300000800A4094E9001038B50446042140685A
:100B400005F020F80421A06805F01CF8E368214AAC
:100B500003EB830302EB830310215960E36803EB8B
:100B6000830302EB83034EF65F201861E36803EB17
:100B700083039B0003F1804303F528252D68ED4393
:100B800005F0010503F529231D60236903EB8303A9
:100B900002EB83035960236903EB830302EB8302B7
:100BA0001061236903EB83039B0003F1804303F58A
:100BB00028221268D24302F0010203F529231A60A9
:100BC00000216068FFF72EFF0021A068FFF72AFFD1
:100BD00038BD00BF00800A4038B5044681EAE173A1
:100BE000A3EBE1731D464EF65F22934200D91546F2
:100BF00000290ADC002911DB00216068FFF712FFE1
:100C00000021A068FFF70EFF07E0A9B26068FFF7B8
:100C100009FF0021A068FFF705FF38BD00216068CB
:100C2000FFF700FFA9B2A068FFF7FCFEF5E70000A0
:100C300038B52DED028B044608EE901A08EE102A06
:100C4000037C042B22D0F7EE086AC8EEA67A9FED4B
:100C5000137A67EE877AFDEEE77A17EE901AC8EE00
:100C6000267A67EE877AFDEEE77A17EE905A2368C8
:100C700059616368C3ED057A2068FFF7ADFF294627
:100C80006068FFF7A9FFBDEC028B38BD0068FFF775
:100C900053FF6068FFF750FFD5E700BF005F6A476A
:100CA0002DE9F0410546884616461F46142007F0F8
:100CB0006FF90446002833D041462846FFF7C2FEAC
:100CC000054639463046FFF7BDFE256060600021CD
:100CD0001A2001F04DFE286023681B68124A9A60B2
:100CE000656801211B2001F043FE286063681B68D2
:100CF0000E4A9A600023A360E36023740C4B1C60CF
:100D000023680C4A12681A6263680B4A12681A62F6
:100D100000210A462046FFF78BFF2046BDE8F08100
:100D2000064808F0C3FBF8E7D81B0020D01B0020C2
:100D300010370020343B0020A03B0020B4E9001015
:100D400007EE101ADFED137A37EE277AFCEEC77A3A
:100D500017EE903A9BB2B3B182B007EE903AF8EE3C
:100D6000677A37EE677ADFED0C7A27EE277AFCEEAA
:100D7000C77ACDED017A9DF804201B0443EA0223D3
:100D8000036002B0704700221B0443EA02230360A1
:100D9000704700BF0000003B00008043002202605B
:100DA00042608260C2604FF4803202604FF4F832D9
:100DB00042604FF4802282604FF44022826070478C
:100DC00038B505460C46FFF7E9FF621C06346B6830
:100DD0006FF3D01343EAC21343EA04336B6028462F
:100DE00038BD00002DE9F04385B005460F4690461A
:100DF0001E4611466846FFF7E3FF1D496846FFF7A8
:100E00009FFF039C24F47874730103F478731C43EC
:100E1000039424F0E05C4CF0806303932CF478237B
:100E200043F08063F20302F4782213430393019B9F
:100E300023F0F853320602F0F8521343019305F100
:100E40002F4101F56001C1F307510631C9B23046A7
:100E500004F098FE6B464246394628460BF0FAFEEF
:100E60002B680122BA4013432B6005B0BDE8F08324
:100E70000000C842714B1B68002B00F0DD80F0B50C
:100E800085B06F4B1F6B002416E0736A5A68002A06
:100E900005DD1A68092A02DC5A68013A5A60012302
:100EA000AB40674A1363654B1A68012382F83830F8
:100EB000AB40634A13630134032C00F3BB805F4BE8
:100EC0001E6804F10A0356F823500123AB403B424D
:100ED000F1D05C4B0FCB0DF1100C0CE90F000CEBBB
:100EE000840353F8103C063B032BDCD801A252F8D4
:100EF00023F000BFDD0F0010230F0010050F0010BE
:100F00008B0E0010736A5A68022A05DC1A68092AD7
:100F100002DC5A6801325A600123AB40484A13632D
:100F2000C1E7736A1A6852B95A6801321A60736A63
:100F300000225A600123AB40414A1363B3E71A68A9
:100F4000032A01DC5A6882B11A68032A02DC5A6853
:100F5000012A1BD01A68042A1DD01A68042A32D02C
:100F60001A68042A9FD15B689DE71A680A321A60E2
:100F7000736A1868C0B20A38C0B2FFF793FC2F4BEF
:100F80001B685B6A4FF0FF325A608CE700221A60E0
:100F9000736A5A6087E75A68002ADED115221A6000
:100FA000736A00225A60284E3368986901F062F92A
:100FB0003368187728B11622204B1B685B6A1A60C9
:100FC00071E71722F8E75A68012AC9D119221A6075
:100FD000736A00225A6001F083F864E7736A1A6842
:100FE000092A04DC00221A60736A5A605BE71A68F7
:100FF000132A12DD1A68162A09D01A68172A06D091
:101000001A681C2A03D01A681D2A7FF44CAF0422E8
:101010001A60736A00225A6045E70020FFF742FC1D
:10102000064B1A68516A0B680A3B0B60536A002230
:101030005A6038E705B0F0BD704700BF2037002088
:1010400000004050400001101C37002010B508205F
:1010500006F09EFF044630B1002303604360044B5A
:101060001860204610BD034808F020FAF9E700BFD9
:1010700018370020D8E900102DE9F04387B08046EA
:101080000F46154699463C2006F082FF0446142080
:1010900006F07EFF002C3DD0064600283ED0C4F866
:1010A00000806760A060E560C4F814900E9BA361A7
:1010B0000F9BE361109B2362CDF80080FBB24022BE
:1010C000802101F07FFAFF21304601F0FDFAA0688F
:1010D00001F005FBA068364B009301230C221D2173
:1010E00001F0ACFBA068334B009301231822402190
:1010F00001F0A4FBA068304B009301232B221F2199
:1011000001F09CFBA06801F0A5FBFFF79FFF606268
:1011100000230FE0294808F0C9F945E0284808F005
:10112000C5F9344640E02A680121994022EA0102CB
:101130002A600133032BF6DD28460BF06FFD2149B1
:1011400028460BF029FD20611F49132004F088FF79
:101150000121132004F04AFF002621E00121284646
:101160000BF0FEFC074606F10A0844F82800174B6E
:101170000FCB0DF1180C0CE90F000CEB860353F8A4
:10118000103C226939462846FFF72CFE14F8283017
:101190000833DBB201229A4005F505531A63013684
:1011A000032EDBDD0A4B1C60204607B0BDE8F08350
:1011B00044EA001054EA001058EA0010F8E9001060
:1011C00020EA001028000110750E001040000110E8
:1011D0002037002030B583B004460D4601F07FFA79
:1011E0002B68092B22DD2B681D2B54D8DFE813F068
:1011F0002B00580069007A008B0053005300530005
:10120000530053005300A400AD00B6005300530038
:1012100053005300530053005300BF00C800D900CF
:101220005300EA00F3000401150126016A6802EB8D
:10123000820252008A4B009301230F320021204684
:1012400001F0FCFACFE7874B009301230022242111
:10125000204601F0F3FA844B009301230F220C2166
:10126000204601F0EBFA814B0093012319220C2157
:10127000204601F0E3FA7E4B0093012323220C2148
:10128000204601F0DBFA7B4B009301232D220C2139
:10129000204601F0D3FA204601F0DCFA03B030BD5D
:1012A000754B0093012300220821204601F0C6FA65
:1012B000724B009301230F220C21204601F0BEFA4D
:1012C000E9E76F4B0093012300220821204601F03B
:1012D000B5FA6A4B009301230F220C21204601F03E
:1012E000ADFAD8E7674B009301230022082120467E
:1012F00001F0A4FA614B009301230F220C21204638
:1013000001F09CFAC7E7604B0093012300220821FB
:10131000204601F093FA5D4B009301230F220C212C
:10132000204601F08BFA5A4B0093012319220C211D
:10133000204601F083FAAEE7564B009301230022CA
:101340000821204601F07AFAA5E7534B00930123C8
:1013500000220821204601F071FA9CE74F4B0093D0
:10136000012300220821204601F068FA93E74C4B44
:101370000093012319220821204601F05FFA8AE731
:10138000484B009301230F220821204601F056FA12
:10139000454B0093012319220D21204601F04EFAFE
:1013A00079E7404B009301230F220821204601F0EA
:1013B00045FA3E4B0093012319220D21204601F0EE
:1013C0003DFA68E73A4B0093012319220821204691
:1013D00001F034FA5FE7374B009301230F22082115
:1013E000204601F02BFA344B0093012319220D21E2
:1013F000204601F023FA4EE72E4B009301230F22E3
:101400000821204601F01AFA2C4B009301231922DF
:101410000D21204601F012FA3DE7294B00930123EC
:101420000F220821204601F009FA1F4B00930123E7
:1014300019220D21204601F001FA2CE7204B0093E0
:1014400001230F220821204601F0F8F9174B0093E1
:10145000012319220D21204601F0F0F91BE700BFFE
:1014600068EA00106CEA001078EA001088EA0010C0
:1014700098EA0010A8EA0010B0EA0010C4EA0010D0
:10148000C8EA0010DCEA0010F0EA0010FCEA0010E4
:1014900010EB001020EB001034EB001044EB0010B8
:1014A00058EB001070EB001084EB001090EB001074
:1014B00098EB0010B0EB0010C4EB0010CCEB001068
:1014C000D4EB00100022026042608260C2604FF4E0
:1014D000803202604FF4F83242604FF48022826022
:1014E0004FF440228260704738B505460C46FFF73E
:1014F000E9FF621C10346B686FF3D01343EAC21328
:1015000043EA04336B60284638BD2DE9F04385B0CB
:1015100006460F4690461D4611466846FFF7E4FF13
:10152000039C24F478746B0103F478731C430394D4
:1015300024F0E05C4CF0806303932CF4782343F0B8
:101540008063EA0302F4782213430393019B23F0A0
:10155000F8532A0602F0F8521343019306F12F4183
:1015600001F56001C1F307510631C9B2284604F004
:1015700009FB00221146284604F020FB6B46424638
:10158000394630460BF066FB33680122BA401343FC
:10159000336005B0BDE8F083F8B507460C46164643
:1015A000142006F0F5FC0546F0B107604460012107
:1015B00020460BF0D5FA0146A8602B6832466868D1
:1015C000FFF7A3FF6C68A868626800F110010123AF
:1015D0008B401A42F8D104304AF6C87344F82030E0
:1015E0000023EB6000232B612846F8BD70B58CB05A
:1015F0000646242006F0CCFC044658B1242006F010
:10160000C7FC054650B100232377A0612661002264
:1016100022620FE02B4807F049FF4FE02A4807F00D
:1016200045FF2C464AE032680121994022EA010236
:1016300032600133032BF6DD30460BF0EFFA23491D
:1016400030460BF0A9FA6061002510E0204B0FCB6B
:101650000DF1300C0CE90F000CEB8503626931468B
:1016600053F8100CFFF798FF44F825000135032DBF
:10167000ECDD174D04AE05F110030FCB86E80F002B
:1016800005F120030FCB8DE80F0001232377002302
:1016900010E0A2690CA901EB830151F8200C02EBC8
:1016A00083025060A26951F8301C181D02EB8002C1
:1016B00051600133032BECDD064B1C6020460CB05F
:1016C00070BD00BFE8EB001014EC001060000110CA
:1016D0008C0001101C37002010B4436884685968DE
:1016E00004F108024FF0010C0CFA02FC11EA0C01A3
:1016F00005D0C0680FE004F1080253F822105A68C0
:101700001CEA020FF7D04B1E13F1030F06D94AF65D
:10171000C873C360C0685DF8044B7047C1F52F41C2
:10172000C831C160F6E70000032827DC30B40B7F26
:1017300003B38B6903EB80025468021D03EB820341
:101740005A6851F82050EB689C4219D29A421AD933
:101750001B1B07EE903AF8EE677A121B07EE102A71
:10176000B8EE477AC7EE876AC5ED046A51F82030B3
:10177000186906E0054A41F65834E2E70020704750
:10178000002030BC70474FF07E50FAE7B0710B007C
:1017900000231A469FED127A0FE050F82310D1ED86
:1017A000046A104901EB8301D1ED007A67EEA67A55
:1017B00037EE277A0132D2B20133032BEDDD6AB165
:1017C000DFED097A27EE277AD0ED087ADFED076A98
:1017D00067EEA67A37EE277A80ED087A006A7047BE
:1017E00000000000500001109A99993E3333333FB6
:1017F0002DE9F04182B004460F46142006F0C8FBE4
:101800000546002845D00A2006F0C2FB8046002885
:1018100043D04FF0010343EC4070052005F02AFB54
:101820000DF10701292001F093FB0221292001F08D
:1018300080FC9DF80730002BF2D0292C32D12046B5
:1018400001F0D2F906460121204601F0DFFA56FAEE
:1018500080F6F6B26421204601F05EFA56FA80F670
:10186000F6B26421204601F04BFB56FA80F6F6B240
:10187000204601F091F956FA80F088F800002C72A9
:10188000C5F8048000232B70EF60284602B0BDE845
:10189000F081084807F00AFEF7E7074807F006FE60
:1018A0004546F2E7610001F0FE01292001F054F9FC
:1018B000C5E700BF50EC001080EC001010B50446E6
:1018C0004168007A01F04AFB237853FA80F02070D7
:1018D000626813783BB95388B3F57A6F03D8B3F5D0
:1018E000FA7F00D223615388013B9BB240F213512F
:1018F0008B4201D923695380207A01F033F9237890
:1019000053FA80F0207010BD70B584B00E461546B5
:101910004FF4CE7006F03CFB044600286AD01C2031
:1019200006F036FB002878D0C4F890012670656078
:101930002923A4F88C312370394BC4F888314FF037
:10194000010343EC40500A2005F094FA04F1080525
:10195000284601F08DFE84F89401292E4DD12846A9
:1019600002F07EFA94F8943153FA80F084F89401EE
:101970000DF10E020DF10F01284601F079FF94F8E8
:10198000943153FA80F084F894010DF1070202A912
:10199000284602F061FB94F8943153FA80F084F801
:1019A00094010121284601F0D5FB94F8943153FAB3
:1019B00080F084F894014FF480420121284601F020
:1019C0004CFD94F8943153FA80F084F89401154951
:1019D000284601F0E1FB94F8943153FA80F084F842
:1019E0009401284602F0B8F894F8943153FA80F044
:1019F00084F89401204604B070BD710001F0FE012E
:101A0000284601F0A0FB94F8943153FA80F084F852
:101A10009401A4F88C612670A1E70446EAE700BFB0
:101A2000D01B0020A08601002DE9F0418AB080463D
:101A3000142006F0ADFA074668B10C2006F0A8FAAB
:101A4000044660B1C7F80C800023036043600025A2
:101A5000057238612CE0244807F028FD40E0234857
:101A600007F024FD27463BE0214C01AB94E807003A
:101A700083E807000AAB03EB850656F8240C04F054
:101A80003BF904AB94E8070083E8070056F8183CDC
:101A90004FF0010242EC443094E807000AAB03E93E
:101AA000070056F80C3C4FF0000242EC4030013584
:101AB000022DD9DD0F4801F0ADFA11210846FFF7DC
:101AC00097FE3860102212214046FFF71DFF786014
:101AD000162213214046FFF717FFB860064B1F6020
:101AE00038460AB0BDE8F081B8EC0010E4EC001014
:101AF000BC000110D01B00200C37002038B5044674
:101B000000F10805D0F89011284601F0B7FE84F8DE
:101B10009401D4F89021137E43B91389B3F5FA6F79
:101B200004D8B3F5967F01D2C4F898311389013BEC
:101B30009BB240F213518B4202D9D4F898311381F1
:101B40000421284602F0A2F838BD00000000000081
:101B50002DE9F0472DED028B044603685B685F8832
:101B60004368D3F890311E89143EB6B28368D3F827
:101B700090311D89193DADB24FF6FF739F4200F0C1
:101B8000838001234FF6FF72964201D00133DBB20E
:101B90004FF6FF72954201D00133DBB2002B75D0B6
:101BA000642F7DD92369564A1A6007EE906AB8EE11
:101BB000677ADFED547A87FE677A06EE905AB8EEC0
:101BC000668A88FE678A38EE478A88EE277AF0EEC2
:101BD000C77A17EE900A0CF08FFD45A3D3E90023D6
:101BE00005F068FFB5EEC08AF1EE10FA6DDD002257
:101BF000454B05F05FFF06F01DF807EE900AF0EE8A
:101C0000E76A9FED427AF4EEC76AF1EE10FA5FDD03
:101C100023695860D4F810A0DAF800000CF06CFDCD
:101C200080468946DAED017AF0EEE77A17EE900AFF
:101C30000CF062FD02460B460020354905F026FFF8
:101C400002460B464046494605F034FF05F0F2FFD8
:101C5000CAF80000132F41D8236901221A722369A0
:101C60002C4A1A602C4BD3ED007AF5EE407AF1EE57
:101C700010FA04D1AE422FD9284A274B1A602369A3
:101C8000254A12685A6007E000237BE72369244A4B
:101C90001A60236900225A60BDEC028BBDE8F08710
:101CA000384605F0D5FF00221E4B05F029FF05F050
:101CB00075FFD4F8108010A3D3E9002305F0FAFED5
:101CC00005F0B8FFC8F800006FE70022164B90E758
:101CD000236900225A60BDE7144ACEE7462FDBD9BC
:101CE000236900221A720C4B00221A60D4E700BF4D
:101CF0009A9999999999C93F666666666666D63FCC
:101D00003333B33E0000C8420000F03F0AD7A33C83
:101D10000000E83F000080BE3C3B00206666E6BE57
:101D2000CDCC4C3E000059400000F0BF6666E63E58
:101D30002DE9F04180460F4616461D46302006F03C
:101D400027F9044698B1C0F8008047608660C560F6
:101D50000023036143618361C3610362069B4362A5
:101D6000079B8362089BC3622046BDE8F08102485E
:101D700007F09CFBF8E700BF14ED00102DE9D043FD
:101D80002DED068B0446D0ED088AD0ED079A39EE8A
:101D9000E89A90ED008A28EE098A00690CF0ACFC04
:101DA00006460F46D4ED057A77EE897A17EE900A4B
:101DB0000CF0A2FC0022314B05F07CFE80468946E7
:101DC00094ED0BAA1AEE100A0CF096FC02460B4694
:101DD0004046494605F06EFE02460B4630463946FF
:101DE00005F040FE05F026FF2061D4ED016AD4ED38
:101DF000047A66EEA77A94ED0A7AB4EEE77AF1EE09
:101E000010FA2FD587EE266A84ED046AD4ED026AB3
:101E100094ED066A38EEC66A66EEC66A86EE8A6A8F
:101E2000D4ED036A66EEA96A78EE277A77EE867AB1
:101E300077EEA67A84ED059AC4ED068AB4EEE77AC9
:101E4000F1EE10FA08D494ED097AB4EEE77AF1EEE7
:101E500010FA01DCB0EE677A17EE100ABDEC068BC3
:101E6000BDE8D08394ED096AB4EEE76AF1EE10FAAA
:101E7000CCDDC6EE265AC4ED045AC7E70000E03FA9
:101E800010B483B000210DF1070209E0836913F05B
:101E9000100FFBD10468134603F8014B01311A46B9
:101EA0000029F3D09DF8070003B05DF8044B70479C
:101EB00038B50546042006F06BF8044650B10570AD
:101EC0004FF6FF734380052D0AD8DFE805F00713AE
:101ED00016191C1F134807F0E9FA21E0002343708C
:101EE0006378012B15D0022B17D0CBB940F2DC530D
:101EF000638015E000234370F2E700234370EFE7AF
:101F000000234370ECE701234370E9E701234370AA
:101F1000E6E740F2DC53638002E04FF47A736380BB
:101F2000204638BD3CED001070B504460E4620201A
:101F300006F02EF8054660B1046046604FF4E131CA
:101F4000204605F079F90221012003F01BFE002450
:101F50000BE0094807F0AAFA0BE02046FFF7A8FFBC
:101F6000A31C45F823000134E4B2052CF5D9034B3A
:101F70001D60284670BD00BF64ED001014370020BE
:101F800030B589B0044600221546402D0BD0202ADA
:101F900009D02068836913F0100FF6D1FFF770FFA6
:101FA0002A460546F1E71E22002168460CF0C4F8D7
:101FB00022680021684609E0936913F0100FFBD1F5
:101FC0001568034603F8015B013118461D29F3D952
:101FD00000234FF69F7207E003F12001694411F8D6
:101FE000201C521A92B201331B2BF5DD9DF81C30D8
:101FF0009DF81D1043EA01239A421FD009B030BD5D
:102000004FF4FA63911C54F821104B800132052AD9
:10201000F4DC530003F12101694411F8201C203342
:102020006B4413F8203C43EA0123B3F5FA6FE7D879
:10203000B3F57A7FE6D24FF47A73E3E70022E6E75E
:1020400030B5C3B004464FF47A724FF4C0111B4848
:1020500005F0AAFB10B1002043B030BD02AD4FF433
:102060008072002128460CF067F8A446AE46203462
:102070007546DCF80000DCF80410DCF80820DCF819
:102080000C300FC50CF1100CAE46A445F0D1DCF8B5
:102090000000286069464FF4C013009302AB01931F
:1020A0004FF47A72064805F07FFB002804D8DFE879
:1020B00000F001000120CFE70020CDE7D52000107F
:1020C000C520001008B54FF48072416800680CF01C
:1020D000FFFA08BD08B54FF480510CF01DFB08BD98
:1020E00070B58AB0242005F053FF40B105465A4B25
:1020F00003605A4B1B681A221A60002608E05848F1
:1021000007F0D4F9A4E001269EB9322004F0B2FE13
:102110007EB90024032CF6D8524B1B6853F82400D8
:10212000FFF7DAFA46F2A8139842EDD80134E4B288
:10213000F0E70026069607960896099612E0494BA6
:102140001B6853F82400FFF7C7FA0AAB03EB8402BD
:1021500052F8103C034442F8103C0134E4B2032C22
:10216000EDD901360F2E01DC0024F8E700230AE048
:102170000AAA02EB830252F8102C120905EB830124
:102180004A600133DBB2032BF2D92B690093EB6871
:10219000AA686968344807F0B9F9304B1B681B22FC
:1021A0001A60002604E0012696B9322004F062FE8F
:1021B00076B90024032CF6D82A4B1B6853F8240068
:1021C000FFF78AFA294B9842EED90134E4B2F1E7DD
:1021D0000026029603960496059612E0214B1B6892
:1021E00053F82400FFF778FA0AAB03EB840252F8A5
:1021F000203C034442F8203C0134E4B2032CEDD9E6
:1022000001360F2E01DC0024F8E700230BE00AAAB8
:1022100002EB830252F8201C09091A1D05EB820209
:1022200051600133DBB2032BF1D92B6A0093EB69C8
:10223000AA6969690E4807F069F92846FFF700FFA7
:1022400040B11C22054B1B681A60284605F0CEFEE3
:102250000AB070BD1D22F5E77856341218370020F9
:1022600084ED00101C370020B0ED00109F860100A7
:10227000E0ED0010154B1A6803F1077303F5AC434A
:1022800078339A4201D000207047F0B50546002609
:10229000032E19D80D4CAC4604F12007A646BEE823
:1022A0000F00CCF80000CCF80410CCF80820CCF8D3
:1022B0000C3074460CF1100CBE45EFD1DEF8000076
:1022C000CCF800000136E3E70120F0BD0000181053
:1022D00070B5064608460CF00FFA09A3D3E90023AF
:1022E00005F0E8FB04460D46304605F0B1FC024619
:1022F0000B462046294605F003FC05F0DFFC70BDC7
:1023000000000000389C8C41F8B51646192855D9B4
:1023100005460C4607EE900AB8EEE77ADFED327A12
:1023200067EE277A17EE900A0CF0E6F902460B46A4
:1023300029A1D1E9000105F0E3FB00222B4B05F0B8
:10234000A5FB05F0BBFC87B2F36803EB83039B009E
:1023500003F1804303F528231F61592D1BD8F5682D
:1023600004FB07F005F074FC1DA3D3E9002305F07E
:10237000A1FB00221E4B05F0C3FB05F09FFC80B2C1
:1023800040EA074005EB85039B0003F1804303F51A
:102390002823D8601CE0F36804FB07F0154A82FB91
:1023A0000020C0F34F1040EA074003EB83039B007B
:1023B00003F1804303F52823D86009E0D36803EBD9
:1023C00083039B0003F1804303F528230022DA6096
:1023D000F8BD00BFAFF3008000000000A3E1A14101
:1023E0007B14AE47E17AF03F0000C8420000F03FA6
:1023F000000059401F85EB510B2800F2A6802DE903
:10240000F04F89B0514B01221A70514BD3F8008024
:10241000042388F81030C0EBC0000DEB03054D4CD1
:1024200004EB80040FCC0FC594E8070085E8070093
:1024300002999DF80400FFF74BFF044607EE900A4F
:10244000F8EE677A9DED067A67EE877AFCEEE77A1A
:1024500017EE906A17EE100A0CF04EF902460B4682
:1024600000203D4905F012FB82468B46204605F0D0
:1024700001FC52465B4605F01DFB05F01FFC0746BC
:10248000D8F80030DB68354A03EB830302EB8303A3
:102490004FF4C8615960D8F80430DB6803EB83035C
:1024A00002EB8302516000243CE0DDF80C90DDF883
:1024B000108038F8142039F81410294807F026F84D
:1024C000234D2B6839F81400800080B21A684E2121
:1024D000FFF71AFF2B6838F81400800080B25A68A2
:1024E0005421FFF711FFDDF8149019F804004FF0A4
:1024F0000008B6FBF0F0414604F0AAFC2B681A680D
:1025000064214046FFF700FF2B685A68642140466B
:10251000FFF7FAFE19F80400B7FBF0F0414604F0AB
:1025200097FC0134BDF81C30A342BEDC084C236884
:102530001868FEF701FB23685868FEF7FDFA236868
:1025400000221A7409B0BDE8F08F7047D83B002014
:1025500010370020C80001100000F03F00800A4042
:1025600010EE001010B582B0002400940BF09AFA1F
:1025700010F1020F08D0B0F1FF3F03D104990548D4
:1025800006F0C4FF02B010BD0499034806F0BEFF78
:10259000F8E700BF28EE001048EE001000B585B047
:1025A00000238DF80C308DF80D10054B009302239D
:1025B00003AAC1784068FFF7D5FF05B05DF804FBBA
:1025C00058EE0010F0B589B005460E461446CAB262
:1025D0000270E7B24770C4F3C700A870EB700E9B9F
:1025E0006B6002FB00F02861013005F0D1FCE8606F
:1025F000002853D00130E860AE238DF80430D52395
:102600008DF8053080238DF80630A8238DF807302B
:10261000013F8DF80870D3238DF8093000238DF821
:102620000A3040238DF80B308D238DF80C302B7A37
:10263000B3B310228DF80D20A1228DF80E20C822F0
:102640008DF80F20DA228DF81020B6EB440F29DD2B
:1026500002228DF8112081228DF81220FF228DF8A0
:102660001320D9228DF81420F3B122238DF81530D0
:10267000DB238DF8163030238DF81730A4238DF826
:102680001830A6238DF81930AF238DF81A30202387
:102690008DF81B3000248DF81C4010E0286111E0FB
:1026A0001422C7E71222D4E7F123DFE704F1200365
:1026B0006B4413F81C1C2846FFF770FF0134182CDC
:1026C000F4D9012009B0F0BD38B504460D4681218A
:1026D000FFF764FF29462046FFF760FF38BD08B5C5
:1026E00002690021C0680BF027FD08BD03788B420A
:1026F00013D990F801C094450FD910B4C468D0081C
:1027000003FB0011635C02F00702012000FA02F2F1
:10271000134363545DF8044B704770472DE9F0474D
:102720008146884617469A46089E002509E0E21928
:1027300005EB08014846FFF7D9FF0134B442F6D350
:102740000135554501D20024F8E7BDE8F0872DE9B1
:10275000F04F87B0804692461E4610989DF8442060
:10276000C378934248D889460379934244D3037887
:1027700013F0070B18BF4FF0010B0BEBD3030393C0
:1027800000252C46CDF808800592024621E0013450
:1027900064B27F08072C0EDC17F0010FF7D004EBB2
:1027A000C8020096334606FB02A206FB0B91029874
:1027B000FFF7B4FFEBE7013508F10108039B9845EB
:1027C00003D2109B5F5D0024E4E7049C109A01345F
:1027D000E4B25378A3420FD9D1780598411AA346A1
:1027E00003FB0141039B03FB01F105310025049428
:1027F000A8460D461092E1E707B0BDE8F08F2DE93D
:10280000F04383B0814690461F460A9E0B9D0C46BE
:102810000EE00135019300963B464246214648466C
:10282000FFF795FF96F801C0B3789C4407FB0C4472
:102830002B78002BEDD103B0BDE8F08310B582B04A
:10284000049C0194024C0094FFF7D9FF02B010BD24
:102850004016011030B585B0054621238DF80830AB
:1028600000228DF809200378591E8DF80A102221C4
:102870008DF80B108DF80C208278013A8DF80D2020
:10288000402B01D000240FE020228DF809201F33B7
:102890008DF80A30F6E704F110036B4413F8081CB6
:1028A0002846FFF77BFE0134052CF4D9EB68402263
:1028B00003F8012CEA682B69044900910133013ABD
:1028C000E9786868FFF74EFE05B030BD68EE00108D
:1028D00010B504461F2103F055F900221146204689
:1028E00003F06CF90021204603F0F2F910BD00005E
:1028F00084460279194B1B6883EA023303F4704360
:10290000174A1360002211460CE0164B0420186091
:10291000124B1B6813F4807FFAD0104B5B6811FADE
:1029200083F10132072AF0DDC90807EE901AF8EEAC
:10293000677ABCEEE77A17EE103AACF80E30DCF8A6
:102940001430CCF810309FED087A67EE877ADFED0F
:10295000076A87EEA67A8CED057A704700000A4078
:1029600000100A4000200A400000B44300F07F45F8
:1029700070B505460E46242005F00AFB044688B1D2
:102980002846FFF7A5FF25601A3D25712673002311
:1029900063612361A361E36123622046FFF7A8FF1F
:1029A000204670BD014806F081FDF9E778EE001081
:1029B00010B584B004460E238DF80F300123009328
:1029C0000DF10F02362180680BF06CF8B0F1FF3F7B
:1029D00001D104B010BD00230093022303AA3621C5
:1029E000A0680BF06BF89DF80C209DF80D3043EAC1
:1029F000022307EE903A63692361F8EEE77A9FEDD0
:102A0000057A67EE877ADFED046A87EEA67A84EDB1
:102A1000057ADEE70000B44300F07F4500000000C7
:102A2000D0B52DED028B044607EE901A90ED058A85
:102A300090ED047A38EE478A9FED3D7AB4EEC78A6E
:102A4000F1EE10FA5DDD9FED3B7A38EE478A9FED9F
:102A50003A7A27EE877AF0EEC86AF4EEC76AF1EEAA
:102A600010FA5ADC237B0BB1B1EE488ADFED316AF4
:102A700088EE267AC7EE278A18EE900A0BF03CFE05
:102A800027A3D3E9002305F079F908B1DFED2B8AFC
:102A900018EE900A0BF030FE23A3D3E9002305F0D3
:102AA00031F908B1DFED268AA0690BF025FE064654
:102AB0000F4618EE100A0BF01FFE0022214B05F006
:102AC0001FF80022204B04F0F5FF02460B4630466B
:102AD000394604F0C7FF05F0ADF8A061DFED1B7AC1
:102AE00068EEA78AD4ED087A9FED197A67EE877AA7
:102AF00078EEA77A17EE900AC4ED087ABDEC028B47
:102B0000D0BD9FED147AB4EEC78AF1EE10FA9ED5CF
:102B10009FED087A38EE078A99E7206AEEE700BF52
:102B2000999999999999FB3F999999999999FBBF85
:102B3000000034430000B44300804A44CDCCDC3F65
:102B4000CDCCDCBF0080764000002140CDCCCC3D18
:102B50006666663F000034C308B54A08012100F0EC
:102B6000B1FA08BD08B50122862100F0ABFA08BD14
:102B700010B582B00C460DF10702302100F09DFA2D
:102B80009DF8073003F010038DF80730B3FA83F394
:102B90005B09237002B010BD08B54022872100F008
:102BA00091FA08BD08B50022872100F08BFA08BD14
:102BB00030B583B004460D460DF10601FFF7D8FF8E
:102BC0000DF107023121204600F077FA50B99DF847
:102BD00007209DF8063002F00102934214BF002343
:102BE00001232B7003B030BD30B583B005462D24D2
:102BF00009E0A4F12D03144AD25C2146284600F0D6
:102C000061FA0134E4B2872CF3D92846FFF7C4FFF8
:102C10000DF107012846FFF7CBFF9DF80730002B89
:102C2000F6D02846FFF79EFF2846FFF7BBFF092294
:102C30000821284600F046FA00220B21284600F021
:102C400041FA03B030BD00BF2018011010B582B0AA
:102C50000C460DF106025E2100F024FABDF80630A4
:102C6000B3F5D77F36D016D8512B08D00AD81D2BF4
:102C700003D10F23238002B010BD1E2B30D11423AB
:102C80002380F8E7AD2B25D0D62B01D0602B27D1A0
:102C900021232380EFE740F2E13293421DD00DD88B
:102CA00040F2D922934218D040F2E122934202D05E
:102CB000B3F5E67F14D164232380DCE740F28F4232
:102CC000934203D040F29152934209D14FF4FA73E8
:102CD0002380D0E732232380CDE7C8232380CAE7AF
:102CE000002323800120C6E710B582B00C460DF109
:102CF00007024B2100F0E1F99DF80730142B05D0B5
:102D00000A2B06D00023238002B010BD01232380AC
:102D1000FAE702232380F7E770B582B006460D4636
:102D20000DF10601FFF7E0FF00286BD10446BDF866
:102D30000630012B0BD0642D46D026D8212D48D04B
:102D4000322D49D0142D1ED122251E224BE0322DCA
:102D500025D00AD8142D27D0212D28D00F2D02D10F
:102D600027251D223FE001204AE0C82D22D0B5F5DD
:102D7000FA7F24D0642D04D14FF4627540F2E12231
:102D800031E001203CE001203AE0C82D27D0B5F524
:102D9000FA7F39D140F2A44540F28F4223E04FF44C
:102DA000F4754FF4D7721EE06E2551221BE06E259C
:102DB000D62218E040F2964540F2E13213E040F2AC
:102DC000C15540F291520EE04FF4F5754FF4E672A2
:102DD00009E06E25602206E0C625AD2203E04FF42F
:102DE0003E7540F2D9226121304600F077F9044364
:102DF00064B22A466121304600F070F9204340B2A7
:102E000002B070BD0120FBE70120F9E770B582B088
:102E100005460E460DF10601FFF718FF00286CD19C
:102E20000446012E04D0022E32D04FF0FF342CE0A5
:102E300014224B21284600F045F9044364B20722CE
:102E40006021284600F03EF9044364B20522632164
:102E5000284600F037F9044364B238226921284635
:102E600000F030F9044364B240F20572782128463C
:102E700000F034F9044364B240F206627A21284635
:102E800000F02CF9044364B27CB3204602B070BD5C
:102E90000A224B21284600F015F9044364B20F22A0
:102EA0006021284600F00EF9044364B20D2263212C
:102EB000284600F007F9044364B2B8226921284685
:102EC00000F000F9044364B240F60D727821284600
:102ED00000F004F9044364B240F60E627A212846F9
:102EE00000F0FCF8044364B2CEE7BDF806102846B3
:102EF000FFF712FF044364B2C7E74FF0FF34C4E7A3
:102F000070B582B005460E460DF10602DE2100F0D6
:102F1000C9F80446BDF80630C3F30903ADF806301E
:102F200006FB03F004F0A6FE07A3D3E9002304F098
:102F3000C1FD04F0C3FE02466C21284600F0E0F813
:102F4000204340B202B070BD333333333333F13FEB
:102F500008B50A46E52100F0B0F808BD10B586B006
:102F60000C46112301AA892100F07AF810BB9DF8C4
:102F7000043003F01F03172B01D80F4AD35C2370D2
:102F80009DF80B209DF80C3043EA0223DB00A38060
:102F90009DF8073023819DF813209DF8143043EAF3
:102FA0000223DB00E3809DF811209DF8123043EAF4
:102FB0000223638006B010BD7C18011010B582B0EA
:102FC00014460023009313460A46C1B20548006820
:102FD0000AF068FDA04202D1002002B010BD4FF0FF
:102FE000FF30FAE7283B002010B582B014460023DA
:102FF000009313460A46C1B2054800680AF05EFD18
:10300000A04202D1002002B010BD4FF0FF30FAE71D
:10301000283B0020014B186000207047283B00200F
:1030200070B51C460133B3F5007F13D806468C46B5
:1030300011460A4D4FEA1C232B7085F801C0224629
:10304000A81C0BF04FF9A21CD2B229463046FFF75C
:10305000B5FF70BD4FF0FF30FBE700BFA82B00208D
:10306000F8B51D460133B3F5007F15D806468C46EA
:1030700017460B494FEA1C230B705FFA8CF44C7017
:103080000222FFF79BFF00B1F8BD3C70EAB239465F
:103090003046FFF7A9FFF7E74FF0FF30F4E700BF36
:1030A000A82B002010B514460223FFF7D9FF228871
:1030B000130243EA1223238010BD08B50123FFF752
:1030C000CFFF08BD00B583B08DF8072001230DF1B7
:1030D0000702FFF7A5FF03B05DF804FB00B583B05E
:1030E000ADF8062092B2130243EA1223ADF806307F
:1030F00002230DF10602FFF793FF03B05DF804FB16
:1031000000B583B00192130203F47F0343EA026324
:103110004FEA122C0CF47F4C43EA0C0343EA126290
:10312000019204230DEB0302FFF77AFF03B05DF871
:1031300004FB08B5084603F09DFE002008BD08B555
:1031400000F08EFF08BD08B54A088A2101F0D0FBC7
:1031500008BD0000152907D8064BCB4013F0010F1E
:1031600005D00172002070476FF0070070476FF0C4
:10317000070070470B003000037A0B700020704787
:1031800010B50C460A46092101F0CCFB18B923788A
:1031900003F00103237010BD08B502F0B6F808BDB6
:1031A00008B502F01EF908BD08B502F08FF808BD99
:1031B000F0B583B006460C46154600238DF807305F
:1031C0000DF10702012101F0ADFB9DF80730074624
:1031D00068BB012D06D0042C34D8DFE804F0191C9C
:1031E0001F222500042C29D8DFE804F00306090C6F
:1031F0000F0043F010041BE043F0280418E043F0F4
:10320000040415E043F0400412E043F080040FE0B2
:1032100003F0EF040CE003F0D70409E003F0FB0433
:1032200006E003F0BF0403E003F07F0400E01C4667
:103230009C4200D057B1384603B0F0BD1C466FF039
:103240000307F5E71C466FF00307F1E7224601216B
:10325000304601F04DFB07460028ECD186F85C4172
:10326000F1683046FFF798FFE5E700201870042961
:103270001CD8DFE801F003080D121700C2F300129A
:103280001A7000207047C2F3C0021A700020704705
:10329000C2F380021A7000207047C2F380121A70C5
:1032A00000207047D2091A70002070476FF00300A9
:1032B000704730B583B005460C4600228DF80720D4
:1032C0000DF10702012101F02DFB024618B1AAB150
:1032D000104603B030BD23469DF807200021284644
:1032E000FFF7C3FF02460028F2D1A31C9DF8072078
:1032F00001212846FFF7B9FF0246E8E7631C9DF865
:10330000072002212846FFF7B0FF02460028DFD140
:10331000E31C9DF8072003212846FFF7A6FF02467D
:103320000028D5D1231D9DF8072004212846FFF74A
:103330009CFF0246CCE730B583B005460C460DF144
:103340000602F82101F0F3FA08B103B030BD6A4675
:103350000421284601F0FBFA0028F6D1BDF806301A
:103360001BB1009AB2FBF3F2226023682B61ECE7F9
:10337000037D0B700020704730B583B004460D46C6
:103380000DF10602202101F0D2FA30B9BDF8063065
:103390002BB9A3692B600023237503B030BDDB007C
:1033A0002B60A36101232375F7E7052942D870B587
:1033B00005460C4616466AB101F10A0300EB830389
:1033C0005A6800230121052C37D8DFE804F0070BE9
:1033D000181C2027114601230022F4E785F820104D
:1033E000002006E0C2F34F224421284601F08CFA67
:1033F00020B9D6B92C44002384F8203070BD85F85C
:1034000022100020F5E785F823100020F1E75B008B
:10341000FE226021284601F0B3FAE9E71B01EF2202
:103420006021284601F0ACFAE2E72544012385F843
:103430002030E3E76FF0030070476FF00300DDE733
:10344000052905D8084490F82030137000207047F3
:10345000002313706FF00300704770B506460C46EA
:103460001546431893F820302BB90A3400EB84003A
:103470004260002070BD05291FD8DFE801F0030677
:103480000C0F1212F262002012E0C2F34F2244210C
:1034900001F03AFA0AE07263002009E0B26300200A
:1034A00006E0C2F34F22642101F02EFA0028E1D198
:1034B0000A3406EB84035D60DCE76FF00300D9E7B4
:1034C00070B582B005460C461646052944D8DFE89B
:1034D00001F0030A161A1E1EC36A0022104622BB00
:1034E000336002B070BD0DF10602442101F01FFAF5
:1034F0000028F6D1BDF806305B02012212E0436BD2
:1035000000221046EBE7836B00221046E7E70DF13F
:103510000602642101F00BFA0028E2D1BDF8063062
:103520005B0200220028DCD1D9E753B904F10A0379
:1035300005EB83035B6833602C44002384F8203060
:10354000CFE7336004F10A0205EB820253602544A1
:10355000012385F82030C4E76FF00300C1E730B5E0
:1035600083B004460D460DF10702012101F0DAF99E
:1035700058B99DF8073084F85C3113F0800F06D1FC
:1035800000232B702B7884F87C3003B030BD0123EE
:103590002B70F7E72DE9F04106460D46FFF7ECFDED
:1035A000044610B12046BDE8F08105F1080130461F
:1035B000FFF7C1FE04460028F4D100232B7305F168
:1035C00010013046FFF7D8FE04460028EAD105F185
:1035D00014013046FFF7B3FD04460028E2D100276E
:1035E000052F19DCC4B91FFA87F807F1080205EBAB
:1035F0008202043241463046FFF762FF204344B264
:1036000054B907F118022A4441463046FFF718FF23
:10361000204344B20137E3E7002CC3D105F1740124
:103620003046FFF79CFF04460028BBD1291D3046D9
:10363000FFF7B6FD04460028B4D1002314E003F1DF
:10364000100206EB8202516803F10E0205EB8202C2
:10365000516003F1160206EB8202916803F1140235
:1036600005EB820291600133062BE8DD9AE700004A
:1036700070B5A0B005460022882101F039F9002379
:1036800085F81C314FF47A72A5F87E21724AC5F88C
:103690000021AB6102A92846FFF77CFF0446002801
:1036A0002DD100238DF808308DF8093011934FF09B
:1036B000966318934BF233331293684B19934FF47C
:1036C000003313934FF061731A93654B1493654B5A
:1036D0001B93654B1593654B1C934FF42023169356
:1036E0004FF0FA731D934FF4702317934FF0C87384
:1036F0001E93782202A905F108000AF0F3FD642365
:10370000A5F860314FF46173A5F862314FF4FA7394
:10371000A5F864314FF42063A5F86831012685F8D7
:103720007C6132468021284601F0E2F8044364B20D
:103730003246FF21284601F0DBF8044364B2002240
:103740001146284601F0D4F8044364B20DF1070293
:103750009121284601F0E6F8044364B29DF8073051
:1037600085F8663132460021284601F0C1F804434D
:1037700064B20022FF21284601F0BAF8044364B283
:1037800000228021284601F0B3F8044364B20026E9
:10379000052E09DC44B90122B1B22846FFF705FE27
:1037A000204344B20136F3E71CB18CB1204620B06F
:1037B00070BD002202212846FFF7F7FD04460028CD
:1037C000F4D1002203212846FFF7EFFD0446ECE781
:1037D000002204212846FFF7E8FD04460028E5D131
:1037E000002205212846FFF7E0FD04460028DDD130
:1037F0004FF4901200212846FFF72FFE04460028C0
:10380000D4D14FF4804201212846FFF726FE04461A
:103810000028CBD14FF40C1202212846FFF71DFEE1
:1038200004460028C2D1002203212846FFF715FED6
:1038300004460028BAD1FF2285F85C2101212846E0
:1038400001F056F8012385F85E3104460028ADD119
:10385000002385F84131A9E7A470090000004C0459
:10386000CCCC03000000EE02CC4C07000000260286
:1038700008B5012300F05EFE08BD00002DE9F0410F
:103880008EB005460C460C230AAA142101F003F859
:103890000646002840F090800023A37523609DF821
:1038A00032209DF8330000EB022080B263609DF867
:1038B0002E309DF82F2002EB032292B25202E260DA
:1038C0009DF830109DF8313003EB01239BB25B0271
:1038D00023619DF82A109DF82B3003EB01239BB246
:1038E000A3829DF82810B5F87EC195F85D71BCF5EE
:1038F0007A7F26D000FB0CFC0CF5FA7C354880FB67
:103900000CE04FEAEC7CCCEBA01C1FFA8CF0D5F855
:1039100018E095F81480B8F1000F12D01FFA8EF05D
:1039200003FB00F04FEA202EB2EB202F48D01FFA05
:103930008CFC02FB0CFCA2EB0E0EBCFBFEFC1FFA87
:103940008CF0002F3FD087082781C0B28001E0753E
:103950000DF1370001900094284601F0C9FF304373
:1039600046B24EBB9DF837E084F818E003AF05F18E
:10397000800CBCE80F000FC79CE8070087E8070031
:103980002389ADF81430E37D8DF823306389ADF8D9
:10399000163063680493E368069323690793A38A48
:1039A000ADF820308DF824E0803503AC0FCC0FC586
:1039B00094E8070085E8070030460EB0BDE8F081C6
:1039C0002FB948F6E02020810020E075C0E742F2E0
:1039D000B820B8E7D34D621070B582B006461446E1
:1039E0001D460DF106020E2100F0A1FFBDF80610E4
:1039F000094A02EA4142226008B102B070BD0DF1ED
:103A000006020C21304600F092FFBDF80620024B62
:103A100003EA42432B60F0E70000FE1F70B582B05E
:103A200004460E4690F80631022B35D0032B62D0A7
:103A3000012B40F08B806B4601AA0121FFF7CCFFE0
:103A40000546019BB3F57F0F40F2818000287ED1AF
:103A50002EB14049204601F02BFD054677E00422B7
:103A6000FF21204600F044FF05436DB20022702183
:103A7000204600F03DFF05436DB20022FF212046A5
:103A800000F036FF05436DB200228021204600F091
:103A90002FFF05436DB25AE06B4601AA0121FFF7E3
:103AA0009BFF0546009B002B51D000284FD12EB123
:103AB0002849204601F0FCFC054648E00422FF218D
:103AC000204600F015FF05436DB20022702120460C
:103AD00000F00EFF05436DB20022FF21204600F0EA
:103AE00007FF05436DB200228021204600F000FF51
:103AF00005436DB22BE06B4601AA0121FFF76CFF75
:103B0000054620BB2EB11349204601F0D1FC0546E5
:103B10001DE00422FF21204600F0EAFE05436DB2BD
:103B200000227021204600F0E3FE05436DB2002222
:103B3000FF21204600F0DCFE05436DB2002280210B
:103B4000204600F0D5FE05436DB200E00025284672
:103B500002B070BD3C18002030B583B004460DF1B2
:103B60000701FFF709FB01228021204600F0C0FE7B
:103B70000122FF21204600F0BBFE00221146204614
:103B800000F0B6FE94F866219121204600F0B0FEC8
:103B900001220021204600F0ABFE0022FF2120463A
:103BA00000F0A6FE00228021204600F0A1FE9DF834
:103BB0000730012B27D0032B35D0002B43D1012216
:103BC0000021204600F094FE01228DF80620E0BB83
:103BD00000250FE00DF106020021204600F0A2FEB4
:103BE00001359DF8063013F0010F06D028B9B5F560
:103BF000FA6F02D2002DF3D0ECE7B5F5FA6F24D3BB
:103C00006FF0060021E048B102220021204600F0BA
:103C10006FFED0B9042384F85E3116E001212046FE
:103C2000FFF7FCFEF0E748B104220021204600F037
:103C30005FFE50B9042384F85E3106E0012120467E
:103C4000FFF7ECFEF0E76FF0070003B030BD10B5F2
:103C500082B004460DF10701FFF78EFA60B99DF8B6
:103C6000073013B128B102B010BD2046FFF774FF32
:103C7000F8E7204600F0A3FE0028F4D19DF80730B5
:103C8000002BF0D1032384F85E31ECE770B582B0ED
:103C90000646002501220B21304600F029FE04468D
:103CA00000220B21304600F023FE044364B20DF1E4
:103CB00007021321304600F035FE044360B201359F
:103CC000EDB29DF8073013F0070F03D0022D01D895
:103CD0000028DFD0022D01D802B070BD6FF00B00BC
:103CE000FAE738B504460D460021FFF733FA0346DC
:103CF00010B16BB1184638BD2046FFF7A8FF034648
:103D00000028F7D129462046FFF7B8FD0346F0E723
:103D100000212046FFF7BAFF0346EBE770B59DF898
:103D20001060002940F0998005461C46142A09D0ED
:103D3000152A10D0042C00F28D80DFE804F0747492
:103D4000747474002EB910228421284600F0D0FD2E
:103D500070BD0122F8E70122FF2100F0C9FD0446F1
:103D600000221146284600F0C3FD044364B200223D
:103D7000FF21284600F0BCFD044364B201228021EB
:103D8000284600F0B5FD044364B20222852128468E
:103D900000F0AEFD044364B20422FF21284600F087
:103DA000A7FD044364B20022CD21284600F0A0FD07
:103DB000044364B21122CC21284600F099FD04434B
:103DC00064B20722FF21284600F092FD044364B24A
:103DD0000022BE21284600F08BFD044364B2062277
:103DE000FF21284600F084FD044364B20922CC215F
:103DF000284600F07DFD044364B20022FF212846DE
:103E000000F076FD044364B20122FF21284600F051
:103E10006FFD044364B200221146284600F068FD9D
:103E2000204340B294E722460A2100F061FD0028B9
:103E30008ED106B110263346EF228421284600F0A9
:103E40009FFD002884D185F8064100212846FFF710
:103E50001DFF7DE76FF00A00E9E76FF0090077E7E3
:103E600030B5A5B005467822002106A80AF064F90D
:103E70000023ADF816308DF815308DF8143004930A
:103E80000121284600F0FAFD95F83F1195F84021F0
:103E9000012A03D813D0AAB90C2913D905AA04A959
:103EA000284600F065FB38B995F87C3173B9D5F830
:103EB0007811284601F0FCFA50B125B030BD202918
:103EC000ECD8E8E7284600F0CFF9ECE74449F0E702
:103ED0000021009104230A462846FFF71FFF00280F
:103EE000EBD10122FF21284600F002FD04460DF12E
:103EF00016028421284600F01AFD044364B2002211
:103F0000FF21284600F0F4FC044360B20028D4D11D
:103F1000BDF816301B01C5F8003106A92846FFF789
:103F200039FB0028C9D10DF115012846FFF728F902
:103F30000028C2D19DF8153085F85D31782206A998
:103F400005F108000AF0CEF90DF11502012128460D
:103F500000F0E8FC0028B0D19DF8153085F85C3100
:103F6000002211462846FFF723F90028A5D1002298
:103F700002212846FFF71CF900289ED1032385F86B
:103F80005E310DF10F0200212846FFF70DF90028E0
:103F900093D19DF80F3085F814310DF10F020121F6
:103FA0002846FFF701F9002887D19DF80F3085F8E2
:103FB0000C3102AA0321284601F070F800287FF492
:103FC0007CAF029BC5F8103102AA0421284601F0FB
:103FD00065F800287FF471AF029BC5F808316CE7E3
:103FE000F419002010B582B00C460DF10702132120
:103FF00000F098FC9DF8073003F00702226013F0F0
:10400000180F01D102B010BD6FF00500FAE710B52E
:1040100082B00C4690F80631042B0DD00DF107024A
:10402000142100F07FFC78B99DF8073013F0010FE0
:104030000FD00123237007E06946FFF7D3FF009BF1
:10404000042B03D00023237002B010BD0123237082
:10405000FAE700232370F7E708B500F089FA08BDF6
:1040600010B582B00C460DF10602282100F05FFC6D
:1040700070B9BDF80620C2F30B03ADF8063012F498
:10408000006F07D0A3F58053FA2202FB03F32360ED
:1040900002B010BDFA2202FB03F32360F8E770B50B
:1040A000044608461E464FF0FF333360D30802F043
:1040B00007059E4600210BE04CFA05FC5FFA8CFCDC
:1040C0002A460DE002EBCE02326001210EF1010E14
:1040D00086450ED269B914F80EC09E45ECD0002278
:1040E000072AF3D81CF0010FECD14FEA5C0C013227
:1040F000F6E770BD8009044B53F820300BB1012066
:1041000070470020704700BFE81A0020B1EBD20FC3
:104110000FD900B54FEAD20C02F0070E10F80C30A0
:10412000012202FA0EF2134300F80C3000205DF871
:1041300004FB6FF03100704708B50A460623B02132
:1041400000F07CFB08BD08B50A460623B02100F04C
:10415000A2FB08BD2DE9F04F87B001908A4600927E
:104160009846109FDDF84490129EDDF84CB00596FD
:10417000002506E0224639464046FFF7C7FF661C89
:1041800001355D4512D205AB324639460098FFF73E
:1041900086FF059CB4F1FF3F0FD004EB0900FFF749
:1041A000A9FF5045E6D06FF0310000E00020149BDD
:1041B0001E6028B107B0BDE8F08F6FF03100F6E760
:1041C00041460198FFF7B8FF0028F3D103A90198F1
:1041D000FFF7B9FF0023BB42ECD218F8031003F13C
:1041E00018026A4412F80C2C914201D10133F2E713
:1041F0006FF03100DEE770B588B004460D4690F8E8
:104200005C61C022012100F073FB034618B183B149
:10421000184608B070BD01A92046FFF762FD0346AD
:104220000028F5D10122FF21204600F061FB034662
:10423000EDE72A46B621204600F079FB0346002828
:10424000E6D10022FF21204600F052FB0346002861
:10425000DED132460121204600F04AFB0346002809
:10426000D6D184F85C61D3E7F0B589B005460F4636
:1042700016460122FF2100F03BFB034610B17BB143
:1042800000231FE000224F21284600F031FB0028C8
:10429000F6D12C224E21284600F02AFB0346EEE7F9
:1042A0000022FF21284600F023FB0028E8D1B42299
:1042B000B621284600F01CFBE2E7E818002480F84D
:1042C00050410133052BF8D9D6B9002407AB04932C
:1042D00003970294B42301930623009305F5A87372
:1042E00005F5AB7231462846FFF734FF30B901239C
:1042F00085F8413185F83F7185F8406109B0F0BD1E
:10430000002404F1B400FFF7F5FE0028DED12B2CC9
:10431000DCD80134F5E710B5044641F00102002174
:1043200000F0E6FA034610B16BB1184610BD204606
:1043300000F045FB03460028F7D100212046FFF797
:10434000A5FC0346F0E700221146204600F0D0FA13
:104350000346EAE72DE9F04F83B005460E46904646
:104360001F469DF838A09DF83C904FF0000B8DF84B
:1043700007B00122FF2100F0BBFA04465A46594615
:10438000284600F0B5FA044364B25A46FF21284695
:1043900000F0AEFA044364B2A6B3BAF1000F20D124
:1043A000B9F1000F25D10122FF21284600F0A0FA23
:1043B000044364B201220021284600F099FA044324
:1043C00064B20022FF21284600F092FA20439DF8B3
:1043D000073003F0EF030D9A137040B203B0BDE84D
:1043E000F08F0C9ACB21284600F09CFA204344B26F
:1043F000D6E70DF10702EE21284600F093FA20439C
:1044000044B2D0E7BAF1000F0BD1B9F1000FCAD016
:104410003B468022EE21284600F0B2FA204344B207
:10442000C1E74246CB21284600F062FA204344B25D
:10443000EBE72DE9F04186B004460E461546002014
:104440008DF817001F4683B194F85C810122114654
:10445000204600F04DFA034648B10022327003B9FD
:10446000F7B9184606B0BDE8F0819846EEE740215E
:104470002046FFF750FF034678B9012DEDD1002209
:104480000392012102910DF1170301930096134647
:104490002046FFF75FFF0346E1E700223270E0E7C6
:1044A00042460121204600F023FA03460028D8D1D5
:1044B00084F85C81D5E72DE9F04186B004460E46CC
:1044C00015461F4683B190F85C81022201212046E7
:1044D00000F00EFA034648B10022327003B9F7B972
:1044E000184606B0BDE8F0819846EEE70021204668
:1044F000FFF711FF034678B9012DEDD1012103919A
:104500000022029201960DF11703009313462046F4
:10451000FFF720FF0346E1E700223270E0E7424662
:104520000121204600F0E4F903460028D8D184F8A0
:104530005C81D5E7F8B5044616461D4690F85C71D7
:1045400000232A46FFF775FF00B1F8BD03462A464F
:1045500031462046FFF7AFFF0028F6D13A46012149
:10456000204600F0C5F90028EFD184F85C71ECE733
:104570002DE9F04F93B004460E46154600230F93E5
:104580000E938DF835308DF83430B0F8687104E052
:10459000E218002182F850110133052BF8D90122CD
:1045A000FF21204600F0A4F9034620B193B118463C
:1045B00013B0BDE8F08F00224F21204600F098F99B
:1045C00003460028F3D12C224E21204600F090F91A
:1045D0000346EBE70022FF21204600F089F903465D
:1045E0000028E4D1B422B621204600F081F9034628
:1045F0000028DCD100228021204600F079F9034612
:104600000028D4D100230DAA0DF135012046FFF773
:1046100091FF03460028CAD100210F9104F5AB7B1E
:1046200004F5A87A0FAB0493032303930291B423F8
:1046300001930623009353465A462046FFF78AFD0E
:1046400003460028B3D1DDF83C800DF13601204649
:10465000FFF7D1FD03460028A9D1BDF83620BA42A4
:104660002BD84FF000094A46CDF82C90002B9ED154
:10467000BDF83610B94280F0B5809DF82C90D4F882
:1046800050011090B4F85421ADF84420C91B81EAC0
:10469000E17CACEBE17C03220A92CDF81C900896F9
:1046A0001E4609954546E0464CE0E218002182F896
:1046B00050110133052BF8D903E00023FAE708F184
:1046C000010808F1B400FFF715FD10B9B8F12B0F80
:1046D000F5D90FAB049303230393CDF80880B423DB
:1046E00001930623009353465A4601212046FFF7C3
:1046F00031FD034600287FF45AAFDDF83C800DF110
:1047000036012046FFF777FD034600287FF44FAFC0
:10471000BDF83620BA4205D84FF000094A460121BB
:104720000B91A3E74FF001090322CDF82C909DE7F0
:10473000D4F850011090B4F85431ADF84430CDF8AD
:10474000289088460EAB2A4606215846FFF7A7FC5C
:104750000E9DB5F1FF3F3ED005F1B400FFF7CAFC56
:104760000B9B98424ED10A9B03F101092A46062170
:104770005046FFF7CBFC00284BD10135514620466F
:10478000FFF7DAFC00284BD10DF136012046FFF788
:1047900032FD064600284AD1BDF83630D91B002923
:1047A000B8BF4942BB42C3D94A46DDF81C90034614
:1047B000089E099D884515D210AF39462046FFF75F
:1047C000BBFC03461098C4F85001BDF84420A4F87F
:1047D00054210A9A06E0DDF81C90089E099D0A9A69
:1047E0006FF03103002B7FF4E2AE326085F8009069
:1047F000012284F84121327884F83F212A7884F814
:104800004021D4E6DDF81C903346089E099D0A9AA3
:10481000E8E74A46DDF81C900346089E099DE1E75B
:104820004A46DDF81C900346089E099DDAE74A4691
:10483000DDF81C900346089E099DD3E72DE9F0435F
:1048400083B00546884617461E4603F101094846CF
:1048500003F09EFB044600F8018B3246394609F00E
:1048600041FD002300934B46224695F88411D5F86C
:10487000800109F017F9B0F1FF3F06D0204603F0A0
:10488000B5FB002003B0BDE8F083204603F0AEFB8B
:104890006FF01300F6E770B584B0044615461E4667
:1048A0008DF80F10012300930DF10F0290F8841181
:1048B000D0F8800109F0F6F8B0F1FF3F12D09DF872
:1048C0000F302B700023009333462A4694F884114E
:1048D000D4F8800109F0F2F8B0F1FF3F05D00020D4
:1048E00004B070BD6FF01300FAE76FF01300F7E744
:1048F00000B583B08DF8072001230DF10702FFF703
:104900009DFF03B05DF804FB00B583B0130A8DF87A
:1049100004308DF80520022301AAFFF78FFF03B0B2
:104920005DF804FB08B50123FFF7B5FF08BD10B51E
:1049300082B01446022301AAFFF7ADFF9DF80420C0
:104940009DF8053003EB0223238002B010BD10B5A3
:1049500082B0144604230DEB0302FFF79CFF9DF881
:1049600004209DF805301B0403EB02639DF806202C
:1049700003EB02239DF807201344236002B010BD0F
:10498000F0B583B006460F4615461C460DF10702EA
:10499000FFF7C8FF08B103B0F0BD9DF8073005EA86
:1049A000030222438DF8072039463046FFF7A0FF67
:1049B000F1E708B5052002F05DFA002008BD30B52A
:1049C00083B0054600248DF807400DF10701284605
:1049D000FFF71DFB024668B99DF80730012B09D08F
:1049E0000134B4F5FA6F03D22846FFF7E2FFECE793
:1049F0006FF00602104603B030BD0130C0B2400077
:104A000000F0FE00704702464FF0804300E09B0834
:104A10009342FCD8002001E040089B0833B1C11844
:104A20009142F9D8521A03EB5000F6E7704770B57F
:104A300082B0064600228321FFF75AFF0446A0B940
:104A400000250DF1070283213046FFF76BFF044676
:104A50009DF8073023B918B90135B5F5FA6FF0D3D1
:104A6000B5F5FA6F01D36FF00604012283213046B9
:104A7000FFF73EFF204340B202B070BD2DE9F04F7A
:104A80008FB005460E4600230A93099390F81C71D7
:104A9000072F16D14FF00008C346C246C146444610
:104AA000072F00F09C8216F0010F00F0708217F0C3
:104AB000010F40F06C8285F83F9185F840A10023FA
:104AC00063E201228021FFF713FF04460122FF2148
:104AD0002846FFF70DFF044364B200221146284622
:104AE000FFF706FF044364B20622FF212846FFF7C2
:104AF000FFFE044364B20DF1370283212846FFF71D
:104B000011FF044364B29DF8372042F00402832170
:104B10002846FFF7EDFE044364B20722FF21284632
:104B2000FFF7E6FE044364B2012281212846FFF725
:104B3000DFFE044364B22846FFF73BFF044364B240
:104B4000012280212846FFF7D3FE044364B216F009
:104B500001095DD017F0010F03D04FF0000AD146D4
:104B600057E06B2294212846FFF7C2FE044364B24B
:104B70002846FFF75CFF044364B20DF1300842465B
:104B800090212846FFF7E3FE044364B20C9BC3F375
:104B90000629C3F3C03A242294212846FFF7A8FE31
:104BA000044364B22846FFF742FF044364B242461E
:104BB00090212846FFF7CBFE044364B20C9B1A0EEB
:104BC0008DF80820C3F307428DF80920C3F30722AC
:104BD0008DF80A208DF80B30252294212846FFF706
:104BE00087FE044364B22846FFF721FF044364B202
:104BF000424690212846FFF7AAFE044364B20C9B6C
:104C00001A0E8DF80C20C3F307438DF80D3000E029
:104C1000CA4616F0020F02D017F0020F0BD016F0A2
:104C2000040F00F0688117F0040F00F0DE804FF0F1
:104C30000008C34662E1022294212846FFF758FE8D
:104C4000044364B22846FFF7F2FE044364B20DF158
:104C50002F0290212846FFF765FE044364B27B22B1
:104C600094212846FFF744FE044364B22846FFF728
:104C7000DEFE044364B20DF12E0290212846FFF7B8
:104C800051FE044364B2772294212846FFF730FE98
:104C9000044364B22846FFF7CAFE044364B20DF130
:104CA0003008424690212846FFF751FE044364B283
:104CB0000C9B5A0E8DF81020C3F386428DF81120FC
:104CC000C3F3C6228DF81220C3F306128DF8132009
:104CD000DB0003F078038DF83730782294212846E2
:104CE000FFF706FE044364B22846FFF7A0FE044324
:104CF00064B2424690212846FFF729FE044364B27D
:104D00000C9B9DF8372002EB53728DF81420C3F3EF
:104D100086528DF81520C3F3C6328DF81620C3F3E2
:104D200006228DF81720C3F346028DF818209B0148
:104D300003F040038DF83730792294212846FFF79D
:104D4000D7FD044364B22846FFF771FE044364B202
:104D5000424690212846FFF7FAFD044364B20C9BBB
:104D60009DF8372002EB93628DF81920C3F3C642F9
:104D70008DF81A20C3F306328DF81B20C3F34612B8
:104D80008DF81C209B0003F07C038DF837307A22CD
:104D900094212846FFF7ACFD044364B22846FFF790
:104DA00046FE044364B2424690212846FFF7CFFDF9
:104DB000044364B20C9B9DF8372002EB93728DF88C
:104DC0001D20C3F3C6528DF81E20C3F306428DF892
:104DD0001F20C3F346228DF82020C3F386038DF8ED
:104DE000213000238DF8223019E77B2294212846B8
:104DF000FFF77EFD044364B22846FFF718FE044324
:104E000064B20AAA90212846FFF7A1FD044364B2C8
:104E10007C2294212846FFF76BFD044364B22846A8
:104E2000FFF705FE044364B209AA90212846FFF764
:104E30008EFD044364B2732294212846FFF758FD87
:104E4000044364B22846FFF7F2FD044364B20DF157
:104E5000300B5A4690212846FFF779FD044364B28F
:104E60000C9B1B021FFA83F8742294212846FFF73B
:104E70003FFD044364B22846FFF7D9FD044364B202
:104E80005A4690212846FFF762FD044364B29DF81C
:104E9000333043EA0808752294212846FFF728FD9D
:104EA000044364B22846FFF7C2FD044364B25A4685
:104EB00090212846FFF74BFD044364B20C9B1B0274
:104EC0009BB20193762294212846FFF711FD0443FB
:104ED00064B22846FFF7ABFD044364B25A46902102
:104EE0002846FFF734FD044364B29DF833B0019BBC
:104EF0004BEA030B02E04FF00008C3460022812179
:104F00002846FFF7F5FC044364B20622FF21284639
:104F1000FFF7EEFC044364B20DF13702832128460B
:104F2000FFF700FD044364B29DF8372002F0FB0256
:104F300083212846FFF7DCFC044364B20122FF21F1
:104F40002846FFF7D5FC044364B20122002128461D
:104F5000FFF7CEFC044364B20022FF212846FFF78E
:104F6000C7FC044364B2002280212846FFF7C0FC3E
:104F7000044364B29CBB93E503F138026A4412F81F
:104F8000301CEA1882F856110133052BF4DD16F0B7
:104F9000020F02D017F0020F25D016F0040F19D01F
:104FA00017F0040F16D10A9BC5F84431099BC5F8C8
:104FB00048314FEA4823C5F84C31BBF1000F20D0EF
:104FC000ABF5C8534FF47A7202FB03F31B095B4243
:104FD0001BB26B6037438DF8377085F81C71204623
:104FE0000FB0BDE8F08F9DF82F3085F81D319DF88A
:104FF0002E3085F81E3104A905F21F1009F014F9AE
:10500000CBE70023E5E70000014801FB00F0704713
:10501000002F3A0068B10138002302E04008013354
:105020009BB2FF28FAD81B029BB253FA80F080B2E1
:10503000704700207047C3B2000A03FA00F0013045
:105040007047000010B50C461146FFF7DDFF00F574
:10505000FA73064AA2FB03239809DB094FF47A721C
:1050600002FB0433B3FBF0F010BD00BFD34D621060
:1050700010B50C461146FFF7C7FF00F5FA70064B56
:10508000A3FB0020800904FB00F000F5FA70A3FBED
:105090000030800910BD00BFD34D6210F0B585B05F
:1050A0000446154600238DF80E30ADF80C30022969
:1050B00009D9032921D0042942D0002006462860BE
:1050C000304605B0F0BD0DF10F021946FEF76CF841
:1050D000064650B19DF80E00FFF7ADFF9DF80F207A
:1050E00081B22046FFF7C4FFE9E70DF10E02462129
:1050F0002046FFF717FC0646ECE70DF10F020021F2
:10510000FEF752F8064608B10020D8E70DF10F026D
:1051100000212046FEF748F8064650B1BDF80C00C5
:10512000FFF789FF9DF80F2081B22046FFF7A0FF0F
:10513000C5E703AA51212046FFF7F9FB0646EDE734
:1051400001A9FEF7B6F89DF80730C3B10DF10F02C3
:1051500000212046FEF728F8064610B10027394600
:1051600017E003AA51212046FFF7E1FB0646BDF8F0
:105170000C00FFF760FF87B216B1002109E000279D
:105180000DF10F0201212046FEF70EF8064640B150
:105190000021C91B9DF80F2089B22046FFF768FF48
:1051A0008DE70DF10A0271212046FFF7C0FB06468C
:1051B000BDF80A00FFF73FFF81B2EAE7F0B585B01E
:1051C00004461646022921D903293ED004297AD162
:1051D00001A9FEF76EF89DF80730002B53D00DF1B2
:1051E0000F0200212046FDF7DFFF0546002853D1BE
:1051F00003AA51212046FFF79AFB0546BDF80C0093
:10520000FFF719FF87B2002D46D13DE00DF10F02E7
:105210000021FDF7C9FF054600283DD19DF80F206C
:1052200031462046FFF70EFF83B2B3F5807F0AD8E0
:10523000C2B2013AD2B2A4F8042146212046FFF7B7
:1052400057FB054628E0FF22F5E70DF10F0200218C
:10525000FDF7AAFF05469DF80F2031462046FFF7CF
:10526000F1FE80B2FFF7D6FEADF80C00A4F8040101
:1052700095B9024651212046FFF746FB054658B92D
:10528000C4F8106108E000270DF10F02012120464B
:10529000FDF78AFF054610B1284605B0F0BD9DF820
:1052A0000F2031462046FFF7CDFE3844FFF7B2FE0F
:1052B000024671212046FFF727FB05460028EBD167
:1052C000C4F80861E8E76FF00305E5E730B583B09F
:1052D000154621B1012911D06FF003040BE00DF147
:1052E00007025021FFF71EFB044624B99DF8070072
:1052F000FFF783FB2870204603B030BD0DF1070295
:105300007021FFF70FFB0446EFE770B584B0064647
:105310000C464FF4FA63019300230093A1F636354F
:1053200002A9FDF7C6FF034658BB9DF808202AB91D
:105330009DF8092012B99DF80A20D2B101AA0221D4
:105340003046FFF7ABFE0346D8B99DF808202AB1D6
:10535000019A02F24E2295423DD9AD1A9DF80A20DB
:1053600092B1019A02F2B2225100B5EB420F16D966
:105370006D1A33B99DF80B20BAB913B99DF80C20FA
:1053800002BB184604B070BD9DF80920002AF0D079
:10539000019A02F52572954204D9AD1AE9E76FF03A
:1053A0000303EEE76FF00303EBE76A4603213046A1
:1053B000FFF774FE0346009A02F5257295420DD957
:1053C000AD1ADAE7A5F2262204213046FFF7F6FEF1
:1053D0000346F460D5E76FF00303D2E76FF00303F1
:1053E000CFE730B587B005460C464FF4FA63029319
:1053F0000023019340F636330B6004A9FDF759FFF3
:10540000034668BB9DF810202AB99DF8112012B9F7
:105410009DF81220CAB102AA02212846FFF73EFEDB
:105420000346B0B99DF810202AB12268029901F212
:105430004E210A4422609DF81220A2B122680299EE
:1054400001F2B22102EB410222604BB99DF8132018
:10545000A2B92BB99DF81420EAB90BB92268EA6009
:10546000184607B030BD9DF81120002AEDD0226803
:10547000029901F525710A442260E6E701AA032199
:105480002846FFF70BFE03462268019901F52571B6
:105490000A442260DDE703AA04212846FFF7FEFD47
:1054A00003462268039901F226210A442260D4E7C8
:1054B00070B582B006460D46002420463DE0AB5C48
:1054C000A21C032B45D8DFE803F0020B141DAA5CD5
:1054D000E31CEB5C043403EB0223A6F860312CE000
:1054E000AA5CE31CEB5C043403EB0223A6F86231F4
:1054F00023E0AA5CE31CEB5C043403EB0223A6F874
:1055000064311AE0AA5CE31CEB5C043403EB022375
:10551000A6F8683111E0A95C0234002207E0285D9A
:1055200002F1080CEC440CF8040C013401329342F3
:10553000F5DC01AA3046FFF781F92B5D6BB160B94C
:10554000621CFF2BBBD0042BE5D914466FF003007F
:10555000F3E714466FF00300EFE702B070BD70B5DB
:1055600082B006460D461446002313600DF1070174
:10557000FDF7FEFE48B99DF8073033B1B269AB8A3A
:1055800002FB03F380331B0A236002B070BD10B529
:1055900082B01446CB68136001AAFFF7E0FF18B988
:1055A0002268019B1344236002B010BD84B010B484
:1055B00001AC84E80F000F99109C002300E0013338
:1055C00018468B4205D201AA52F82320A242F6D3F4
:1055D00000E00020994202D060B1411E01E0013993
:1055E0000846119B1960129B186000205DF8044B5F
:1055F00004B070470146F4E770B5AEB00C461646ED
:1056000000230F930E9310A9FDF7C4FF05461F9BBF
:10561000A34205D3269B1B0C336028462EB070BDD9
:10562000259BA34201D82C9BF5E70EAB0D930FAB46
:105630000C930B9407230A93EC460DF18C0EBEE8F5
:105640000F00ACE80F00BEE80F00ACE80F009EE8CA
:1056500003008CE803001FAB0FCBFFF7A7FF0F9BE6
:105660000E9A934224D003F10E012EA800EB810183
:1056700051F8740C02F10E010DF1B80C0CEB810124
:1056800051F8741C14330CEB830353F8703C143240
:105690000CEB820252F8702C8842BCD09B1A081A7C
:1056A000000AB3FBF0F3091B090A03FB0123B2E76D
:1056B00014332EAA02EB830353F8703CABE70000CF
:1056C0002DE9F04F89B00546894601928369079319
:1056D0000B694FF47A7808FB03F3029306AAFFF7ED
:1056E00056FF07AA49462846FFF739FF8246069F1C
:1056F00008FB07F606F500464FEA164B079C08FB29
:1057000004F4B4F5481F01D94FF44814BAF1000F5E
:105710003ED1D5F80831049395F80C8142461946DC
:105720002846FFF78FFC0390D5F81031059395F8C4
:10573000142119462846FFF785FCB8F1080F2BD035
:105740000322039B034402FB03F3DB0203F5FA731A
:105750005F4AA2FB03139B0940F2776101FB03F34D
:1057600003F5FA73A2FB03239B0907F18002170AD2
:10577000069703FB07F780373F0A22F0FF020692E5
:10578000BBF1000F0AD1534B019A1360C5F86C317D
:10579000504609B0BDE8F08F0222D2E707B90127D1
:1057A000029B6FF30F03B3FBFBF04B4B984200D906
:1057B00018464FF4167303FB00F807EB4700800010
:1057C000FFF721F94FEA400BB9F80830434A02FBD2
:1057D00003F36FF30F06A6EB440404F5FA743C4A96
:1057E000A2FB0414A40906F5FA76A2FB0626B60964
:1057F0002002B0FBF6F0000299F81820002A5ED1D2
:10580000374AA2FB03239B0AC0F5803003FB00F05C
:1058100000F50040000C00F58030400800FB00F06F
:10582000800B4FF4487303FB00F000F50040000CC0
:1058300008F500484FEA184808FB08F800FB00800C
:10584000FFF7E1F803043233264AA2FB03235B0986
:10585000B3FBFBF340F6B53141F2883201FB032381
:10586000214CA4FB0324640B204A934201D94FF43A
:105870007044049B059A134403F5FA73144EA6FB77
:1058800003239809DB0903F5C813B3FBF0F0FFF716
:10589000BAF8000200F5FA70A6FB0060800900FB70
:1058A00000F004FB0400FFF7AEF84FF47A7303FB3B
:1058B00000F03FB1074B984205D9064803E04FF48A
:1058C0008030AEE70348019B1860C5F86C015FE7C4
:1058D000D34D6210AE878F02666666009A99060005
:1058E000517BC6371F85EB515917B7D10F279F241E
:1058F0002DE9F04F89B0044616461F4600238DF867
:105900001F308DF81E308DF81D308DF81C30ADF82D
:105910000A300193C1F3C3050F2D09D8DFE805F064
:105920000B080808080B080B080808080B0B0B0BE2
:105930004FF0000B01E04FF0010B0DF11F020021B1
:105940002046FDF77DFD03469DF81FA0BAF1000F2C
:105950002AD010B14FF0000A27E006AA129920467B
:10596000FFF7AEFE034618B173B14FF0000A1CE01A
:1059700001AA129B19692046FFF73EFE034640BB71
:10598000019A12994A81EFE705AA00212046FDF706
:1059900097FD0346059A2AB106998A420ED34FF025
:1059A000000A01E04FF0000A5BB19DF81D80B8F1DC
:1059B000000F3ED083B14FF000083BE04FF0010AEA
:1059C000F2E70DF11D0202212046FDF739FD0346E5
:1059D000EBE74FF0000AE8E704AA02212046FDF7B2
:1059E0006FFD034658B1BDF80A205202C4F8742175
:1059F0000499E1B1914235D34FF0000819E001223A
:105A0000FF212046FEF774FF03460028EBD10DF17D
:105A10000A02B6212046FEF78AFF03460028E2D19B
:105A20000022FF212046FEF763FF0346DBE74FF02D
:105A30000008D3B19DF81C90B9F1000F20D0002BC5
:105A400057D1CFB13602B6FBF7F603AA03212046A1
:105A5000FDF736FD0346039A82B1B2421FD84FF0DC
:105A600000090DE04FF00108E3E707AA03212046F3
:105A7000FDF7E6FC0346DDE70026E6E74FF0000908
:105A8000002B38D1BBF1000F0CD16B1E092B15D8A0
:105A9000DFE803F00C0C0C141410142310234FF047
:105AA0000109EDE7FF23139A137024E00523139AED
:105AB000137020E00423139A13701CE0B8F1010F57
:105AC0000BD0042D0DD0B9F1010F0AD0BAF1010F9E
:105AD0000BD00023139A13700DE00323139A137055
